:100000000C945D000C9485000C9485000C94850084
:100010000C9485000C9485000C9485000C9485004C
:100020000C9485000C9485000C9485000C9485003C
:100030000C9485000C9485000C9485000C9485002C
:100040000C948E020C9485000C94FE020C94D80241
:100050000C9485000C9485000C9485000C9485000C
:100060000C9485000C94850000000008000201003B
:100070000003040700000000000000000000000072
:10008000250028002B0000000000240027002A0083
:10009000040404040404040402020202020203032E
:1000A0000303030301020408102040800102040836
:1000B00010200102040810208B0411241FBECFEF72
:1000C000D8E0DEBFCDBF11E0A0E0B1E0E0E8F9E0AC
:1000D00002C005900D92A431B107D9F721E0A4E147
:1000E000B1E001C01D92AC3BB207E1F710E0CDE5F5
:1000F000D0E004C02197FE010E94B804CC35D1079E
:10010000C9F70E9430030C94BE040C94000090E0E8
:10011000FC01EC55FF4F249180579F4FFC018491C7
:10012000882399F090E0880F991FFC01EA57FF4F50
:10013000A591B491FC01E458FF4F859194918FB73C
:10014000F894EC91E22BEC938FBF089590E0FC01C2
:10015000E859FF4F2491FC01EC55FF4F3491FC010D
:10016000E057FF4FE491EE23C9F0222339F023300A
:1001700001F1A8F4213019F1223029F1F0E0EE0F5D
:10018000FF1FE458FF4FA591B4918FB7F894EC91FD
:10019000611126C030953E233C938FBF08952730D0
:1001A000A9F02830C9F0243049F7809180008F7D74
:1001B00003C0809180008F7780938000DFCF84B56B
:1001C0008F7784BDDBCF84B58F7DFBCF8091B0006E
:1001D0008F778093B000D2CF8091B0008F7DF9CF20
:1001E0003E2BDACF1F93CF93DF93182FEB010E94A2
:1001F0008700209739F460E0812FDF91CF911F9124
:100200000C94A600CF3FD10511F461E0F5CFE12FAA
:10021000F0E0E859FF4FE491E33031F140F4E13090
:10022000B1F0E230E1F0C038D1057CF7E4CFE7303F
:1002300029F1E83059F1E430B1F780918000806213
:1002400080938000D0938B00C0938A0004C084B553
:10025000806884BDC7BDDF91CF911F91089584B59B
:10026000806284BDC8BDF7CF809180008068809394
:100270008000D0938900C0938800EDCF8091B000BA
:1002800080688093B000C093B300E5CF8091B00048
:1002900080628093B000C093B400DDCFAF92BF9274
:1002A000CF92DF92EF92FF920F931F93CF93DF9342
:1002B0006C017B018B01040F151FEB015E01AE1871
:1002C000BF08C017D10759F06991D601ED91FC9193
:1002D0000190F081E02DC6010995892B79F7C501C0
:1002E000DF91CF911F910F91FF90EF90DF90CF9012
:1002F000BF90AF900895FC01538D448D252F30E0C1
:10030000842F90E0821B930B541710F0CF96089522
:1003100001970895FC01918D828D981761F0A28D4F
:10032000AE0FBF2FB11D5D968C91928D9F5F9F7315
:10033000928F90E008958FEF9FEF0895FC01918DCB
:10034000828D981731F0828DE80FF11D858D90E038
:1003500008958FEF9FEF0895FC01918D228D892FD5
:1003600090E0805C9F4F821B91098F7399270895BD
:1003700086E191E00E94AC0121E0892B09F420E0A4
:10038000822F089580E090E0892B29F00E94B80127
:1003900081110C9400000895FC01A48DA80FB92FC1
:1003A000B11DA35ABF4F2C91848D90E001968F739D
:1003B0009927848FA689B7892C93A089B1898C91BC
:1003C000837080648C93938D848D981306C002880B
:1003D000F389E02D80818F7D80830895EF92FF92D5
:1003E0000F931F93CF93DF93EC0181E0888F9B8D58
:1003F0008C8D98131AC0E889F989808185FF15C012
:100400009FB7F894EE89FF896083E889F989808134
:100410008370806480839FBF81E090E0DF91CF9103
:100420001F910F91FF90EF900895F62E0B8D10E025
:100430000F5F1F4F0F731127E02E8C8D8E110CC094
:100440000FB607FCFACFE889F989808185FFF5CFDF
:10045000CE010E94CC01F1CFEB8DEC0FFD2FF11DF1
:10046000E35AFF4FF0829FB7F8940B8FEA89FB891C
:1004700080818062CFCFCF93DF93EC01888D88237A
:10048000B9F0AA89BB89E889F9898C9185FD03C0F7
:10049000808186FD0DC00FB607FCF7CF8C9185FFDC
:1004A000F2CF808185FFEDCFCE010E94CC01E9CF54
:1004B000DF91CF9108950F931F93CF93DF938B011B
:1004C000CFEFD0E0C81BD90B61E018161906D4F4A1
:1004D0008AE00E94A600BE0186E00E94F200CFEFF3
:1004E000D0E0C01BD10B61E0101611068CF485E042
:1004F0000E94A600BE0189E0DF91CF911F910F916C
:100500000C94F20086E00E94A600BE018AE0E5CFCE
:1005100089E00E94A600BE0185E0EECF1F920F92F7
:100520000FB60F9211242F933F938F939F93AF9306
:10053000BF938091B8019091B901A091BA01B09197
:10054000BB013091B70123E0230F2D3758F50196F9
:10055000A11DB11D2093B7018093B8019093B901FB
:10056000A093BA01B093BB018091B3019091B40103
:10057000A091B501B091B6010196A11DB11D809366
:10058000B3019093B401A093B501B093B601BF91AC
:10059000AF919F918F913F912F910F900FBE0F9030
:1005A0001F90189526E8230F0296A11DB11DD2CFEA
:1005B0001F920F920FB60F9211242F933F934F93D8
:1005C0005F936F937F938F939F93AF93BF93EF93BB
:1005D000FF9386E191E00E94CC01FF91EF91BF91E2
:1005E000AF919F918F917F916F915F914F913F91CB
:1005F0002F910F900FBE0F901F9018951F920F9282
:100600000FB60F9211242F938F939F93EF93FF9325
:10061000E0912601F09127018081E0912C01F09179
:100620002D0182FD1BC0908180912F018F5F8F7300
:1006300020913001821741F0E0912F01F0E0EA5E55
:10064000FE4F958F80932F01FF91EF919F918F9196
:100650002F910F900FBE0F901F9018958081F4CFAF
:10066000789484B5826084BD84B5816084BD85B58D
:10067000826085BD85B5816085BD80916E00816099
:1006800080936E001092810080918100826080933F
:100690008100809181008160809381008091800041
:1006A0008160809380008091B10084608093B1006C
:1006B0008091B00081608093B00080917A00846066
:1006C00080937A0080917A00826080937A00809192
:1006D0007A00816080937A0080917A0080688093AC
:1006E0007A001092C1008AE00E94870086E00E9492
:1006F000870085E00E94870089E00E9487008FE0E4
:100700000E94870080E10E948700E0912601F0911D
:10071000270182E08083E0912201F0912301108281
:10072000E0912401F09125018FEC808310922E013D
:10073000E0912A01F0912B0186E08083E09128016D
:10074000F0912901808180618083E0912801F091FE
:100750002901808188608083E0912801F09129013E
:10076000808180688083E0912801F0912901808157
:100770008F7D80831CE904E682E3F82E90E0C92E89
:1007800090E0D92EAA24A394B12C86E191E00E9496
:10079000AC01892B41F086E191E00E948A0190939F
:1007A000150180931401C0911401D0911501C63434
:1007B000D10529F52091000130910101029FC0016E
:1007C000039F900D1124BC010E945B02C734D10528
:1007D000B1F58091000190910101089FB001099F3E
:1007E000700D11249C01F29EC001F39E900D112406
:1007F0000E945B02CB36D10509F480C034C0C234FC
:10080000D10551F420910001309101011203C00182
:10081000139F900D1124D7CFC235D10581F52091BA
:100820000001309101011203B001139F700D1124DA
:10083000029FC001039F900D11240E945B02CA34E5
:10084000D10581F520910001309101014EEC420368
:10085000B001439F700D11241203C001139F900D2E
:1008600011240E945B02C114D10409F48ECF0E94AE
:10087000B801882309F489CF0E94000086CFCC34C8
:10088000D10519F52091000130910101029FB001BD
:10089000039F700D11241203C001139F900D1124AA
:1008A0000E945B02C834D10571F52091000130919E
:1008B00001011203B001139F700D11244EEC42038D
:1008C000C001439F900D1124CCCFC934D10509F04C
:1008D0007DCF8091000190910101F89EB001F99EB9
:1008E000700D11249C01029FC001039F900D1124E3
:1008F0000E945B02CB34D10509F07CCFB09201019C
:10090000A0920001B0CFC335D105A1F770E060E03F
:1009100090E080E0A6CFE6E1F1E01382128288EE5B
:1009200093E0A0E0B0E084839583A683B78386E05C
:1009300091E09183808385EC90E09587848784ECB7
:1009400090E09787868780EC90E0918B808B81EC9C
:1009500090E0938B828B82EC90E0958B848B86EC7D
:1009600090E0978B868B118E128E138E148E0895C5
:10097000EE0FFF1F0590F491E02D0994F894FFCF3E
:10098000010000000000EE014E017B013B02AC01C2
:040990008A019E0139
:00000001FF
