:020000040000FA
:100000000C9461000C947E000C947E000C947E0095
:100010000C947E000C947E000C947E000C947E0068
:100020000C947E000C947E000C947E000C947E0058
:100030000C947E000C947E000C947E000C947E0048
:100040000C948E010C947E000C947E000C947E0027
:100050000C947E000C947E000C947E000C947E0028
:100060000C947E000C947E00000000002400270009
:100070002A0000000000250028002B0000000000DE
:1000800023002600290004040404040404040202DA
:100090000202020203030303030301020408102007
:1000A0004080010204081020010204081020000012
:1000B0000008000201000003040700000000000027
:1000C000000011241FBECFEFD8E0DEBFCDBF11E08E
:1000D000A0E0B1E0E8E5F5E002C005900D92A230A5
:1000E000B107D9F721E0A2E0B1E001C01D92AD3027
:1000F000B207E1F70E94D8010C94AA020C94000008
:10010000833081F028F4813099F08230A9F008958D
:100110008730A9F08830C9F08430B1F48091800034
:100120008F7D03C0809180008F7780938000089539
:1001300084B58F7784BD089584B58F7DFBCF809182
:10014000B0008F778093B00008958091B0008F7DCC
:10015000F9CFCF93DF93282F30E0F901E255FF4F1D
:100160008491F901E656FF4FD491F901EA57FF4F08
:10017000C491CC23A1F081110E948000EC2FF0E00B
:10018000EE0FFF1FE458FF4FA591B491EC91ED23C2
:1001900081E090E009F480E0DF91CF91089580E064
:1001A00090E0FACF1F93CF93DF93282F30E0F9012F
:1001B000E255FF4F8491F901E656FF4FD491F901C2
:1001C000EA57FF4FC491CC23A9F0162F81110E944A
:1001D0008000EC2FF0E0EE0FFF1FEE58FF4FA591CF
:1001E000B4918FB7F894EC91111108C0D095DE232B
:1001F000DC938FBFDF91CF911F910895DE2BF8CF55
:10020000CF93DF9390E0FC01E656FF4F24918A578D
:100210009F4FFC0184918823D1F090E0880F991FB3
:10022000FC01E859FF4FA591B491FC01EE58FF4F36
:10023000C591D491623071F49FB7F8943C91822FAC
:10024000809583238C93E8812E2B28839FBFDF9199
:10025000CF9108958FB7F894EC912E2B2C938FBFEC
:10026000F6CF1F93CF93DF93182FEB0161E00E942D
:100270000001209739F460E0812FDF91CF911F9129
:100280000C94D200CF3FD10511F461E0F5CFE12FFE
:10029000F0E0E255FF4FE491E33031F140F4E1301A
:1002A000B1F0E230E1F0C038D1057CF7E4CFE730BF
:1002B00029F1E83059F1E430B1F780918000806293
:1002C00080938000D0938B00C0938A0004C084B5D3
:1002D000806884BDC7BDDF91CF911F91089584B51B
:1002E000806284BDC8BDF7CF809180008068809314
:1002F0008000D0938900C0938800EDCF8091B0003A
:1003000080688093B000C093B300E5CF8091B000C7
:1003100080628093B000C093B400DDCF1F920F9233
:100320000FB60F9211242F933F938F939F93AF9308
:10033000BF938091090190910A01A0910B01B091A6
:100340000C013091080123E0230F2D3758F5019659
:10035000A11DB11D209308018093090190930A010A
:10036000A0930B01B0930C018091040190910501C1
:10037000A0910601B09107010196A11DB11D8093C6
:10038000040190930501A0930601B0930701BF916A
:10039000AF919F918F913F912F910F900FBE0F9032
:1003A0001F90189526E8230F0296A11DB11DD2CFEC
:1003B000789484B5826084BD84B5816084BD85B540
:1003C000826085BD85B5816085BD80916E0081604C
:1003D00080936E00109281008091810082608093F2
:1003E00081008091810081608093810080918000F4
:1003F0008160809380008091B10084608093B1001F
:100400008091B00081608093B00080917A00846018
:1004100080937A0080917A00826080937A00809144
:100420007A00816080937A0080917A00806880935E
:100430007A001092C10061E08BE00E94000161E04F
:100440008CE00E94000161E085E00E94000161E013
:1004500086E00E94000162E087E00E94000162E005
:1004600088E00E94000162E089E00E94000162E0F1
:100470008AE00E94000162E082E00E94000162E0E6
:1004800083E00E94000100E010E0C1E0D0E082E0E3
:100490000E94A900892B21F4D0930301C09302018B
:1004A0008091020190910301019709F04AC087E011
:1004B0000E94A9000197B1F588E00E94A900019768
:1004C00089F561E085E00E94D2006BE970E086E08A
:1004D0000E9431018091000190910101892B49F422
:1004E0006BE970E085E00E94310161E086E00E94E6
:1004F000D20089E00E94A900892B69F48AE00E9459
:10050000A900892B41F41092030110920201D093AB
:100510000101C09300010115110509F4B8CF0E9433
:100520000000B5CF87E00E94A900892B99F688E0EA
:100530000E94A900892B71F610920101109200010E
:10054000C9CF61E085E00E94D20061E086E00E94B0
:0A055000D200C0CFF894FFCF0100E5
:107E0000112484B714BE81FFF0D085E080938100F7
:107E100082E08093C00088E18093C10086E0809377
:107E2000C20080E18093C4008EE0C9D0259A86E02C
:107E300020E33CEF91E0309385002093840096BBD3
:107E4000B09BFECF1D9AA8958150A9F7CC24DD24C4
:107E500088248394B5E0AB2EA1E19A2EF3E0BF2EE7
:107E6000A2D0813461F49FD0082FAFD0023811F036
:107E7000013811F484E001C083E08DD089C08234E0
:107E800011F484E103C0853419F485E0A6D080C0E4
:107E9000853579F488D0E82EFF2485D0082F10E0AE
:107EA000102F00270E291F29000F111F8ED06801E7
:107EB0006FC0863521F484E090D080E0DECF843638
:107EC00009F040C070D06FD0082F6DD080E0C81688
:107ED00080E7D80618F4F601B7BEE895C0E0D1E017
:107EE00062D089930C17E1F7F0E0CF16F0E7DF06D8
:107EF00018F0F601B7BEE89568D007B600FCFDCFD4
:107F0000A601A0E0B1E02C9130E011968C91119780
:107F100090E0982F8827822B932B1296FA010C0160
:107F200087BEE89511244E5F5F4FF1E0A038BF0790
:107F300051F7F601A7BEE89507B600FCFDCF97BE46
:107F4000E89526C08437B1F42ED02DD0F82E2BD052
:107F50003CD0F601EF2C8F010F5F1F4F84911BD097
:107F6000EA94F801C1F70894C11CD11CFA94CF0C13
:107F7000D11C0EC0853739F428D08EE10CD085E9AC
:107F80000AD08FE07ACF813511F488E018D01DD067
:107F900080E101D065CF982F8091C00085FFFCCF94
:107FA0009093C60008958091C00087FFFCCF809118
:107FB000C00084FD01C0A8958091C6000895E0E648
:107FC000F0E098E1908380830895EDDF803219F02E
:107FD00088E0F5DFFFCF84E1DECF1F93182FE3DFCA
:107FE0001150E9F7F2DF1F91089580E0E8DFEE27F6
:047FF000FF270994CA
:027FFE00040479
:00000001FF
